:020000040000FA
:10000000E01C2020FD0100000102000003020000AE
:1000100000000000000000000000000000000000E0
:1000200000000000000000000000000005020000C9
:10003000000000000000000007020000298A000004
:100040000B0200002D2D00000B0200000B0200002F
:100050000B0200000B0200000B0200000B0200006C
:10006000000000000B0200000B0200000000000076
:10007000000000000B0200000B0200000B02000059
:100080000B0200000B0200000B0200000B0200003C
:100090000B0200000B020000000000000000000046
:1000A0000B0200000B020000000000000000000036
:1000B0000B020000000000000B0200000B02000019
:1000C00000F002F800F06EF812A030C808382418CA
:1000D0002D18AC4201D100F065F80FCCA246AB461A
:1000E0000CA730CF2D1B083F3F197C427F1E544484
:1000F0002D090426F441641EAC4201D300F052F8ED
:100100000126334200D0FB1A3343984754465D46DC
:10011000DFE7000024D4000044D400000000000009
:10012000103A02D378C878C1FAD8520701D330C840
:1001300030C101D504680C60704700000000000069
:100140007047000000000000002300240025002666
:10015000103A01D378C1FBD8520700D330C100D583
:100160000B60704710B5642902D100F0CDF810BDC6
:10017000752902D100F0C8F810BD782902D100F02D
:10018000F9F810BD632902D100F03BFD10BD7329C1
:1001900002D100F03EFD10BD002010BD1FB51FBDF7
:1001A00010B510BD00F084FD1146FFF7F7FF09F010
:1001B0002FFF00F09CFD03B4FFF7F2FF03BC00F03B
:1001C000EDFD000070B505460C46164602E00FCC6A
:1001D0000FC5103E102EFAD2082E02D303CC03C551
:1001E000083E042E07D301CC01C5361F03E0217859
:1001F0002970641C6D1C761EF9D270BD064800473C
:10020000FEE7FEE7FEE7FEE7FEE7FEE703480449F8
:10021000024A044B70470000C1000000E00C20209F
:10022000E01C2020E00C20200FB41CB50C0007AA15
:10023000009007D04142A14202D30019401E01E0C4
:100240000020C043074B7B4469460190069800F0AC
:10025000B2FC0020002C01D0009908701CBC08BC26
:1002600004B018479309000070B50446856900681A
:10027000C10601D5302600E02026C00707D070BD9A
:1002800062683046A1689047206A401C20626D1E5B
:10029000F6D570BD70B5044685690078C00707D1F2
:1002A00070BD6268A16820209047206A401C2062CF
:1002B0006D1EF6D570BD70B50C460546012A05D0F9
:1002C0002878800600D5EA69002302E0012305E0D2
:1002D0005B1C934202D2E05C0028F9D1A869E618C1
:1002E000C01AA861286AC01828622846FFF7BCFF18
:1002F00004E06A682078A968641C9047B442F8D387
:100300002846FFF7C7FF70BDF7B5002575291068AF
:10031000009914A611D0C046C046002802DA404217
:1003200011A608E0009909688A0701D50FA602E026
:10033000490704D50EA6012501E0C046C046009F2E
:100340000024243704E000F068FC30313955641C87
:100350000028F8D12B4632462146009800F0CDFB0C
:10036000FEBD0000000000002D0000002B0000007A
:100370002000000070B504460D4621461068C046B6
:10038000C0462188090502D50F4A7A4402E00E4A88
:100390007A440E3223460021243305E00607000983
:1003A000360F965D5E54491C0028F7D12078002353
:1003B000000705D5702D03D0002901D0022311328A
:1003C000204600F09AFB70BD46A20000F3B504463B
:1003D000002081B020622046E1688847002872D062
:1003E000252802D06268A168ABE0594F00267F44FF
:1003F0002046E16888472028054608DB312D06D2D3
:10040000781920380078002801D00643F0E7B007BB
:1004100001D5042086430020E0610746A0612A2D13
:100420000AD0284609F04AFF002827D0B800001952
:10043000303D0090856119E00298BA00121902C897
:10044000916102902046E1688847012F054617D147
:10045000E06900281FDA202086431CE000980A216A
:100460008069484300994019303888612046E16826
:100470008847054609F022FF0028EFD1012F0AD056
:100480002E2D08D12046E1688847054620200643E6
:100490007F1C022FC3DBA069002803DA4042A06161
:1004A00001200643F00701D0102086436C2D0BD0AD
:1004B000682D09D04C2D3CD06A2D38D0742D38D001
:1004C0007A2D36D016E040E0E1682F462046884776
:1004D000B842054609D16C2F29D001208002E1687D
:1004E000064320468847054604E06C2F1DD0FF20B8
:1004F00001300643002D28D028464138192803D85A
:100500000120C00206432035204626602946029A73
:100510001646FFF727FE002810D001280BD0F61D45
:10052000F008C0000830029055E74020E1E7802045
:10053000D5E70020D3E7361D02964CE762682846CF
:10054000A1689047206A401C44E7206AFEBD000075
:100550000AA20000034610B50B439B070FD1042AE3
:100560000DD308C810C9121FA342F8D018BA21BA77
:10057000884201D9012010BD0020C04310BD002ACF
:1005800003D0D30703D0521C07E0002010BD03782E
:100590000C78401C491C1B1B07D103780C78401CAD
:1005A000491C1B1B01D1921EF1D1184610BDF8B594
:1005B000042A2CD3830712D00B78491C0370401CEB
:1005C000521E83070BD00B78491C0370401C521E2F
:1005D000830704D00B78491C0370401C521E8B0704
:1005E0009B0F05D0C91ADF002023DE1B08C90AE0D3
:1005F000FFF7E8FDF8BD1D4608C9FD401C46B440A4
:100600002C4310C0121F042AF5D2F308C91A521E37
:10061000F0D40B78491C0370401C521EEAD40B78AE
:10062000491C0370401C012AE4D409780170F8BD0C
:10063000D2B210B513029A1813049A1800F00EF8EB
:1006400010BD01E004C0091F0429FBD28B0701D5AE
:100650000280801CC90700D00270704700290BD0AF
:10066000C30702D00270401C491E022904D383072D
:1006700002D50280801C891EE3E70022EEE70022FB
:10068000DFE70000F8B507460B46394619438907EE
:1006900013D1164CE601042A0FD302CB0D1B8D4358
:1006A000354202D102C0121FF5E7CBB20370401CE5
:1006B000521E002B13D0090AF7E7002A14D019782C
:1006C000521E5B1C0170401C002908D0002A0BD070
:1006D0001978521E5B1C0170401C0029EDD1002AC4
:1006E00002D01146FFF7C9FF3846F8BD01010101EC
:1006F000002203098B4273D3030A8B4258D3030BA6
:100700008B423CD3030C8B4221D312E003460B43B4
:100710007FD4002243088B4274D303098B425FD3FA
:10072000030A8B4244D3030B8B4228D3030C8B4226
:100730000DD30902FF2212BA030C8B4202D312120C
:10074000090265D0030B8B4219D300E0090AC30BE1
:100750008B4201D3CB03C01A5241830B8B4201D38E
:100760008B03C01A5241430B8B4201D34B03C01A77
:100770005241030B8B4201D30B03C01A5241C30AEF
:100780008B4201D3CB02C01A5241830A8B4201D360
:100790008B02C01A5241430A8B4201D34B02C01A4A
:1007A0005241030A8B4201D30B02C01A5241CDD2EF
:1007B000C3098B4201D3CB01C01A524183098B423A
:1007C00001D38B01C01A524143098B4201D34B0123
:1007D000C01A524103098B4201D30B01C01A524186
:1007E000C3088B4201D3CB00C01A524183088B420D
:1007F00001D38B00C01A524143088B4201D34B00F6
:10080000C01A5241411A00D2014652411046704767
:100810005DE0CA0F00D04942031000D3404253406C
:100820009C46002203098B422DD3030A8B4212D32C
:100830008901FC2212BA030A8B420CD3890192115E
:100840008B4208D3890192118B4204D389013AD09B
:10085000921100E08909C3098B4201D3CB01C01A70
:10086000524183098B4201D38B01C01A5241430983
:100870008B4201D34B01C01A524103098B4201D371
:100880000B01C01A5241C3088B4201D3CB00C01ADE
:10089000524183088B4201D38B00C01A5241D9D2F6
:1008A00043088B4201D34B00C01A5241411A00D277
:1008B00001465241104663465B1001D34042002B73
:1008C00000D54942704763465B1000D3404201B5F2
:1008D0000449002802DC491C084000E00846C046E4
:1008E000C04602BDFFFFFF7F7047704770470000A2
:1008F000F0B5FF252D04C609C209FF2704462E4086
:100900000137CB093E4348402A402B400746002A86
:100910006BD0002B69D0AA4267D0AB4265D00028CB
:1009200000DA32460125ED0529432C430902200255
:10093000090AD21A4B0C7F24E31A434C000A7C4468
:10094000E35C7D242404121914145B00A21888426D
:1009500001D3521C00E0400049420C465C43241184
:100960005C43DB016415E318040A5C43C502200DF7
:100970000C4644436419250A5D432303EC0C0D46E1
:10098000654300030019EB184C42A34201D35B18E6
:10099000401CD4052018002B07D05B00C91804D3D5
:1009A000401C002901D1400840003F2189048A42AF
:1009B00009D3002A08DC1106090F04D003214907D6
:1009C0004018C00FC007F0BD01224100120689186F
:1009D0007F2252069142F6D205214907C84201D52D
:1009E0009010F0BDFF20C005F0BD002F00DA3246A8
:1009F0001648AA4207D2AB4205D21902090E17D0F7
:100A0000F80FC007F0BDFF2563002D06AB42F9D8F3
:100A10004900A942F6D8AB4201D1A942F2D0A9427D
:100A200001D1002101E061004908D0050843F0BD73
:100A30001102090EFBD0FF200243D005F0BD0A468B
:100A40000146104654E70000CB9C00000000C07F28
:100A500010B501469E240002CA15A307002A02D041
:100A60001843002A04DBA21A002A0CDDD04010BD76
:100A70001206120E01D140004008A21A03D4D04041
:100A800040420028F3DDFF2248001206904201D9BF
:100A9000002010BDC817C043584010BD1F22030CD2
:100AA00002D10F2200041CD0030E01D10002083A2B
:100AB000030F01D10001121F830F01D18000921E8C
:100AC000002801DB4000521ED205511802125118B5
:100AD0001922904004D3491C002801D1490849003B
:100AE00008467047C10FC90700D040420122920753
:100AF0001143D3E701218907D0E7FFB504460D462E
:100B000081B0243000902168880604D51022E06965
:100B10009143216000E00120A84201DD471B00E075
:100B200000270498A1697A191018081AA061207882
:100B3000C00602D42046FFF797FB002608E0039882
:100B40006268A168805D9047206A401C761C206224
:100B500004988642F3DB2078C0060AD52046FFF7CA
:100B600083FB06E06268A16830209047206A401C41
:100B7000206238467F1E0028F4DC07E00098626897
:100B8000A168405D9047206A401C206228466D1E87
:100B90000028F3DC2046FFF77DFB2078000602D515
:100BA000022005B0F0BD0120FBE7000001694A1CEE
:100BB00002610878704700B58FB00291002105915D
:100BC0000549019379440391114604906846FFF763
:100BD000FDFB0FB000BD0000E5FFFFFF0CC90839A9
:100BE0009A4202D2531C0B601070704710B54369D3
:100BF000002B02D0C046C04601E0FFF75CFB01209D
:100C000010BD1278014624310A7000224A70012278
:100C1000ECE711680022D243E8E701468008081A91
:100C200002091018020A1018020C1018C0088200DD
:100C300012185200891A01E0401C0A390A29FBD215
:100C40007047000010B5FF231B0644009C421DD8CE
:100C50004C009C421AD80346124A0B4307D4401A50
:100C600002D3EFF3008010BDEFF3008010BD081A2F
:100C700003D3EFF30080904305E0EFF30080012100
:100C80009043C907084380F3008810BD0D231B045F
:100C90001A4204D01146002000F031F810BD00F0D7
:100CA00045F810BD00000090004870472800202043
:100CB0007546FFF7F9FFAE46050069465346C00882
:100CC000C000854618B020B5FFF7A0FA60BCB64654
:100CD00000260027C0C5C0C5C0C5C0C5C0C5C0C5A9
:100CE000C0C5C0C5403D490849008D46704710B594
:100CF0000446C046C0462046FFF75DFA10BDC80254
:100D000012D54803400F002804D0C803C043012176
:100D100088407047EFF300800001000903210907B4
:100D2000084380F3008870470020704710B50248E0
:100D300000F004F810BD00000000C07F10B50C46A4
:100D40001107090F092904D00A290AD008290CD152
:100D500004E011460820FFF7D2FF06E0510606D551
:100D600001E0510601D50120C007214610BDD10682
:100D700007D501010909CC084907000E0006044304
:100D800009E0410F20024907000A0143200E000636
:100D90001D22D14101430846E7E700000149182020
:100DA000ABBEFEE726000200704700005948002154
:100DB000017301604160816001614161816101777E
:100DC0000162416281620163416381630164416444
:100DD000816402462032117302463032117302469A
:100DE00040321173024650321173016541658165CD
:100DF0000166416681660246603211730167416790
:100E00008167703001737047F0B581B016460C46AB
:100E10000746002500F05AF9002F30D0002C2ED0C4
:100E20003C490A7B002A24D03A4A117F00291ED06F
:100E3000114620310B7B002B1BD0114630310B7B30
:100E4000002B16D0114640310B7B002B11D01146E0
:100E500050310B7B002B0CD0114660310B7B002BEB
:100E600007D07032117B0029114608D101E0103201
:100E7000114601250D7380190F604C60886028466B
:100E800001B0F0BDF0B585B00220C043019000264E
:100E900000F01CF904461F4A009007E00246029841
:100EA0008260009C1B4A761C082E30D03001151839
:100EB000287B0028F7D028680028F4D0A968611A98
:100EC000F1D480470198431C69680295AA684B4396
:100ED000049348430390A71A5018241A8D00501801
:100EE000002CDBD4049BDB190AD4039BDB190AD446
:100EF00040184018641B7F1B4218002FEFD5CEE727
:100F000048008218CBE7032048438218C7E705B0A2
:100F1000F0BDC046FC062020F0B5C1B000F0D6F808
:100F200000094B2850D3294C2078002832D03FAC00
:100F3000204607F02FFE2AA805F056FB08A800F06F
:100F40006FFBA3792278062A2BD1062B01D0032B25
:100F500027D1234801684A1C02602E202AAA105E6D
:100F60000790062008AD285E06903226965F04277B
:100F7000ED5F4627D75F0024145F0220105E069ABB
:100F800000920196029503970494059015A01A46C5
:100F9000079B17E00EA007F03FFB0120207041B037
:100FA000F0BD0F4801684C1C0460062008AC205EB0
:100FB00000242AAD2C5F0226AD5F1D9E009601AE77
:100FC00031C610A007F028FB41B0F0BD8C002020F6
:100FD0000D0A234442472C53544152540D0A000039
:100FE00088002020542C25752C25752C25642C2553
:100FF000642C25642C25642C25642C25642C256404
:101000000D0A0000532C25752C25752C25752C25D3
:10101000642C25642C25642C25640D0A0000000036
:1010200080B507F0BFFC02F09DFC80BD70B507F0F5
:1010300097F900F0FDFA00F0F7F805F0DDFA07F097
:10104000B1FD02F093FEFFF7B1FE17480125002421
:1010500029462246FFF7D8FE14480A263146224682
:10106000FFF7D2FE124831462A46FFF7CDFE11485F
:1010700002223146FFF7C8FE0F4803223146FFF730
:10108000C3FE0E4832210522FFF7BEFE4B20810031
:101090000B481422FFF7B8FE00F011FB284621464A
:1010A000224600F04BFB70BD21100000FD3C00000B
:1010B000B1920000591700006D6700005147000011
:1010C000190F000080B5FFF7DDFE80BD15480068F0
:1010D0007047C046084809494160FF210906084A8F
:1010E00013688B430321890759181160002181601F
:1010F000072101607047C04610E000E0FF7C00005F
:1011000020ED00E007480168491C01607047C046B7
:10111000044A1268101A884201D200207047012048
:101120007047C046A00420208E4A002313775360E6
:101130009360D360136153619361508004201070F9
:1011400001201076507591817047C04610B5854BCF
:1011500000245C609C60DC601C615C619C61588068
:10116000042018701C770120187658759981D8755D
:101170001A8110BDB0B5002804D07A493CC93CC0E2
:101180003CC93CC0B0BDC04610490878421E062A82
:1011900010D80FA07A441279520097440C03070923
:1011A000050D0F001BA0704714A0704716A07047D4
:1011B00014A070471AA070470EA07047087D002841
:1011C00001D009A0704705A07047C046FC0520204B
:1011D0004F70656E4C6F6F7000000000546F2042BE
:1011E0006C61636B00000000546F20576869746580
:1011F00000000000547261636B0000005475726E51
:101200000000000041726300537472616967687482
:10121000000000005370656564486F6C6400000056
:1012200049646C650000000080B54E4800210170E3
:10123000801C1B21FFF721FA80BDC04649490022CE
:101240000A774A608A60CA600A614A618A61488096
:1012500006200870FF20023008830120487570477F
:1012600070B50C4605463F4EB01C1B21FFF705FA32
:101270000120B07674823582307070BD3949002209
:101280000A774A608A60CA600A614A618A61488056
:1012900002200870012048757047C04680B531486B
:1012A00000210170801C1B21FFF7E7F980BDC046BB
:1012B0002C4900224A608A60CA600A614A618A61D8
:1012C00001220A774880032008700A76CA754A7599
:1012D0007047C04610B5234A00230124147750807C
:1012E0000320107051609360D36013615361936168
:1012F00014765475D476FF200230D08210BDC046DB
:1013000010B5184B00241C775880032018705960C2
:101310009C60DC601C615C619C61012018765875E2
:101320001A81D876FF200230D88210BDB0B50446AD
:101330000C4DA81C1B21FFF7A0F9012028766C8119
:1013400005202870B0BDC046B0B50446054DA81CA8
:101350001B21FFF792F90120E8752C8105202870E8
:10136000B0BDC046FC052020044881210160012059
:10137000C0073C49086008637047C0461880424077
:1013800070B5EFF31081EFF3108272B60124E2071B
:101390001F4B012812D0002825D131481425058083
:1013A0000473002545730588C5810474007C0028FA
:1013B00000D110331A6081F3108870BD28482325AE
:1013C00005801E264680858003250573002545730C
:1013D0000588C5810474007C002800D110331A6090
:1013E00081F3108870BD1E48232505804580372570
:1013F000858003250573002545730588C581047420
:10140000007C002800D110331A6081F3108870BD71
:1014100090120A401248017C002908D0C189002995
:1014200002D0C189491EC181C189002900D07047FD
:10143000417B491C4173427B037B0A499A4208D293
:10144000427B5200825AC281407BC00703D11039CF
:1014500001E0002202740120C00708607047C04606
:10146000C0042020A0120A40811E091F00BFFCD228
:1014700070470000F0B53C4A82183C4BC31808790D
:101480004E793B4D3B4C002E23D0202804D005261E
:10149000F601002803D003E0374E002800D188264B
:1014A000576F2F4037435767976F2F4037439767E2
:1014B000566B26405663966B26409663002656650B
:1014C00096658F26F6435F6837405F609F683740B8
:1014D0009F608E79096820280BD0002819D1491EF9
:1014E0005160D76E2F4088210F43D766174670375B
:1014F00019E0491E5160D16E29401F4F3943D16612
:10150000116F294039431167012149071B4D1746C7
:1015100009E049085160D76E2F400521C9010F43EA
:10152000D766174670373C682C400C433C60D16A44
:10153000104C2140D162116B214011630021D16414
:1015400011658F21C943D46F0C40D4671C680C40CF
:101550001C600643BD2030401168094B0B40C01889
:10156000801C1060F0BDC046041800008418000004
:1015700024493E008888FDFF01040000FFFFFFCFE3
:101580004000FFCF92008018014A81507047C0464A
:101590001018000010B50122120383180C789C600B
:1015A0004B7883508978014A815010BD0C1100009E
:1015B000B0B51122120283580124A34383500B8833
:1015C0008C781C438B882343094C1C408358094D5D
:1015D0001D40631983508B79CC791C43097A2143D0
:1015E0007E231940801842689A4351184160B0BD6B
:1015F00018670000E798FDFF10B501221203831859
:101600000C789C604978815010BD10B5002805D039
:1016100004465020FFF728FF641EFAD110BD0000D9
:1016200080B5002803D04B498822FEF7CBFD80BD52
:1016300070B5FFF799FE02F043F801F0A9FA00F047
:10164000D7FB012528068021424E70500024746586
:1016500034607460B460F460304610303821FFF7B5
:101660000EF8842034503465F464324804604460D9
:101670008460C460B464B465F46534667466B4664A
:10168000F46634677467B467F4672B4804700848DD
:1016900005702548057023480470244804604460A0
:1016A0008460C46022487021FEF7E9FF70BDC04627
:1016B0002C06202080B50120FFF762FE80BD80B59A
:1016C0000220FFF75DFE80BD70B51648002404704F
:1016D000154804701548046044608460C460144870
:1016E0007021FEF7CCFF1B4DAC61EC612C626C628B
:1016F000AC62EC622C636C632B4670330FCB0D4EE7
:101700002C81AC63EC632C646C64AC64EC642C657D
:101710006C650FC600F0F2FC07480078842168541D
:101720006C6070BDF00920202D062020F4092020D7
:1017300080092020880620202E06202010B587232F
:10174000044CE2548623E1548523E05402F00BF963
:1017500010BDC04688082020F0B5A7B001F040FABF
:1017600000F040FD24AD284600F038FB1DAE3046A9
:1017700001F006FA19AC204601F09AFF0BA801F01F
:1017800089FFFFF7A3FC2B7A8021EE4A049107938F
:1017900053546B7A8121039108935354B37E822171
:1017A000535483231C99D1542499029003C2239843
:1017B0005080199890806088D08020980A901F9857
:1017C00009901E981D9B219E229D0B9F0C991365CD
:1017D0005065099890650A98D06516665566083A6E
:1017E0001346176751670D980E999067D167A088C7
:1017F000E1880904081821896289120451181861C6
:101800005961D14E3078002800D10BE1CF480078E3
:1018100001908000CE490E183823002009900FE077
:10182000601C089BC74AD1580818D0501C3609982C
:10183000801C09901B1D0698401C482B00D116E106
:101840000546C448C018383801680BAA0893D21856
:10185000383A12680260541A2046FFF743F90146ED
:101860000695EDB2032D07D0012DBB48089B07D08C
:10187000002D04D1B94803E0B848089B00E0B848FF
:1018800032683460B74FFB18383B1F68BA1A171913
:101890001F60B54A97423A4600DCB34AB34B9A42BE
:1018A00000DB1A46A74B099C1B190A931A8308F000
:1018B000D1FD0590AE49FFF71BF80446AD4908F08D
:1018C000DAFC0028A94818D1C7200106204608F0F4
:1018D000EAFC002802D0A548401C0EE0002120466A
:1018E00008F0BEFC002801D1BF2000E03F20010627
:1018F000204608F0EBFCFFF7ABF80A99088438465D
:10190000FFF7F0F80146032D04D0012D924804D0D2
:10191000002D01D1914800E09148079608F09AFD0A
:101920009549FEF7E5FF0446924908F0A4FC00281B
:101930008E4E37461AD1C7200106204608F0B3FC68
:10194000002802D0894E771C10E00021204608F0C4
:1019500087FC002801D1BF2000E03F20010620467F
:1019600008F0B4FCFFF774F80746804E0A990F851B
:101970003020085EFFF7B6F8044638B2FFF7B2F839
:101980007E4908F067FD074620467D4908F062FD64
:10199000394608F09BFC0446764908F06CFC0028A8
:1019A0003046079E18D1C7200106204608F07BFC70
:1019B000002802D06D48401C0EE00021204608F0AF
:1019C0004FFC002801D1BF2000E03F200106204647
:1019D00008F07CFCFFF73CF80A9908864F200106C6
:1019E000059F38460D4608F046FC0028F54C204679
:1019F00000D016E7CF200106384608F054FC002836
:101A000000D00DE70021384608F02AFC002801D15B
:101A1000BF2000E03F200106384608F057FCFFF7E2
:101A200017F8FEE6184610303821FEF728FEE04889
:101A300000240470DF48046044608460C460DE48B1
:101A40000E990D9A0C9B0B9D0560D74D43608260EB
:101A5000C160DA487021FEF712FE8421012068542B
:101A6000AC64EC642C653070089A079B5AE10198CD
:101A7000401CC1B20629009500D90020CC4908704D
:101A80002E20C94D285EFFF72DF804462C20285E35
:101A9000FFF728F80146204608F018FC3F210A917C
:101AA0000E06314608F0D6FC07462A20285EFFF7CE
:101AB00019F804462820285E3546FFF713F801463A
:101AC000204608F003FC314608F0C4FC0446BE4939
:101AD00008F0D1FB0028BA4E304618D1C7200106C5
:101AE000204608F0E0FB002802D0B54E701C0EE046
:101AF0000021204608F0B4FB002801D1BF200506D4
:101B00002046294608F0E2FBFEF7A2FFAC4E4A2130
:101B1000A54A5052AC49384608F0ADFB002839D1EF
:101B2000C7200106384608F0BEFB002802D0A448B2
:101B3000461C2FE00021384608F092FB002821D1F6
:101B4000BF2020E0880820202E062020F009202039
:101B50008009202088062020D176143E20D0113E16
:101B60008477123EF40920200080FFFFFF7F0000F1
:101B70000AD7233C00FEFF46295C8F3DCDCCCC3DEF
:101B80006666663F0A980106384608F09FFBFEF736
:101B90005FFF06464821844D6E52686CFEF7A2FF37
:101BA0000446286CFEF79EFF0146204608F08EFB97
:101BB0000A990C06214608F04DFC0746E86BFEF733
:101BC00091FF0646A86BFEF78DFF0146304608F0F0
:101BD0007DFB214608F03EFC0990009D294608F057
:101BE0004AFB0028774E304619D1CF200106099EC6
:101BF000304608F058FB002802D0724E701C0EE0F0
:101C00000021304608F02CFB002801D1BF2004063B
:101C10003046214608F05AFBFEF71AFF694E62492A
:101C200008653846294608F026FB0028304617D1BB
:101C3000CF200106384608F036FB002801D0701C82
:101C40000EE00021384608F00BFB002801D1BF2030
:101C500000E00A980106384608F038FBFEF7F8FE67
:101C60005149C864099C2046394608F04BFC08904D
:101C70002046394608F02AFB0A990C06214608F04E
:101C8000E9FB0646294608F0F6FA002802D04D483E
:101C9000454D18E0CF200106304608F004FB00282F
:101CA000414D02D04748401C0DE00021304608F06D
:101CB000D7FA002801D1BF2004063046214608F09B
:101CC00005FBFEF7C5FE68654049089808F0C2FBB1
:101CD00004463D4908F0CFFA002801D0384818E002
:101CE000C7200106204608F0DEFA002802D034485A
:101CF000401C0EE00021204608F0B2FA002801D175
:101D0000BF2000E00A980106204608F0DFFAFEF73F
:101D10009FFE28818420285C411E884103996A5CCB
:101D200004996B5C2A4C217801290DD100280BD035
:101D3000002B09D0002A07D026480078012805D1B9
:101D400025480299814201D227B0F0BD18482F469C
:101D50000025057025701748056045608560C560E1
:101D600016487021FEF78BFCBD61FD613D627D620E
:101D7000BD62FD623D637D633B4670330FCB0E4E0B
:101D80003D81BD63FD633D647D64BD64FD643D656F
:101D90007D650FC600F0B2F90448007884217854BC
:101DA0007D60257027B0F0BD880820202E062020F9
:101DB000F0092020F4092020880620208009202016
:101DC000FF7F0000FFFFFF7F00FEFF46ECC91841C8
:101DD0002D0620202C062020AC0D0000002806D067
:101DE000CD498A6882604A6842600968016070472C
:101DF000F0B585B0764800210160416081600D46F4
:101E0000029174482821FEF73AFC73487349016037
:101E10000646012001900402714A1460714B19605A
:101E20008006009010601960106031606E48057087
:101E30001460174630252846FFF716FB81200390D3
:101E400030603946403904910C603E46103F3C609A
:101E50002846FFF709FB6048604901603460284666
:101E6000FFF702FB039E5C480660049804603C6038
:101E70002846FFF7F9FA5848584901605848046065
:101E80002846FFF7F1FA54480660049E34603C602F
:101E90002846FFF7E9FA504850490160504804606D
:101EA0002846FFF7E1FA03984B49086034603C602C
:101EB0002846FFF7D9FA494847490860484804606E
:101EC0002846FFF7D1FA039E434806600498046051
:101ED0003C602846FFF7C8FA3F4840490160404847
:101EE00004602846FFF7C0FA3B480660049E346051
:101EF0003C602846FFF7B8FA37483849016038484F
:101F000004602846FFF7B0FA039933480160346053
:101F10003C602846FFF7A8FA30492F480160304856
:101F200004602846FFF7A0FA039E2B480660049839
:101F300004603C602846FFF797FA2849264801606C
:101F4000274804602846FFF78FFA23480660049E5E
:101F500034603C602846FFF787FA22480399016005
:101F600000983060386006462846FFF77DFA1B4F20
:101F7000194807601A480460044601F06FF92846C2
:101F8000FFF772FA1748076026602846FFF76CFAD9
:101F9000104C01982070FFF799F860611348029E79
:101FA000C67713A11CC91CC03CC93CC0184AD675D1
:101FB0000B8803808978817016A00AC80AC21AC8E3
:101FC0001AC2018811808078907005B0F0BDC046BB
:101FD0002C052020D40620204C80424081000600A1
:101FE000E0120A40EC804240B805202098052020ED
:101FF0004779726F2070726F6265204132362F41CF
:102000003800000000000000000000000000000098
:10201000BC052020736F6674204932430000000025
:10202000000000000000000000000000F0B585B0D6
:102030000C460146002000295ED0002C5CD0002A0E
:102040005AD07C4D6B78022B23D0012B54D10292B5
:102050000191AB78122103AA06260746184633469B
:1020600000F006FF01463846002945D003AA13793F
:1020700050790102CF1801990F80039F277057787C
:1020800067709778A7702371D278E27001220523D8
:1020900018E002920191AB78472103AA0226074675
:1020A0001846334600F0E4FE01463846002923D0A6
:1020B00003A84078039A11020B1801990B80227033
:1020C00000220123E05402980670AE7708886883E6
:1020D0004148416889194160002A02D10620811BCC
:1020E00000E000212135A819FEF7C7FA284621464D
:1020F0003246FEF75CFA012005B0F0BD4D480021E4
:10210000016281774183C16001618184324A11603B
:10211000203081717047C0462C05202010B50C4638
:1021200001462E480022026042608260C260026165
:1021300042618261C2612A48026042608260C2607C
:1021400002614261002903D024481F22FEF79AFA57
:10215000002C04D0224817222146FEF793FA10BD26
:10216000F0B581B00C460546324E00273781F78026
:10217000B780F760376101203060B761F76137627F
:10218000B784304618308773FEF7A0FF12490F60FE
:102190004F600F8111490F604F608F60CF600F61FA
:1021A0004F618F61CF610E490F604F608F60CF60CC
:1021B0000F614F61C8307061002D04D007481F22A5
:1021C0002946FEF75FFA002C04D005481722214665
:1021D000FEF758FA01B0F0BD2C052020980520200C
:1021E000BC052020F0B59BB008A80024047007A807
:1021F0000470FEF76BFF0F4F7969401A00D5B9E301
:102200003878401E0E2800D9F9E0400078448088D4
:102210004000874411003A01DA0007017F005401B1
:1022200088012101CC01C000A60165009A00670168
:102230002F00C046D4062020FB48002404706925E6
:1022400008AE012328462146324600F011FE3378BD
:10225000002800D1CFE1242B00D0CCE1BD70242098
:10226000F14908707C773C83412080003880EF483A
:10227000EF495EE30AA98C800A9409AA14700CA89D
:10228000FFF7D4FE002800D10CE23C7708203A5E2C
:102290000CA80188881A03B2DB1305465D40EB1ACF
:1022A0001BB209AD2D7806950DB20595082B00DD02
:1022B0006EE2FD7FFF2D04D06E1CFE77132D00D241
:1022C00067E21F205043059A8018C20E801840090B
:1022D0003881081A01B2C91302464A40531A58E21B
:1022E000B8786B210024224601F08EF8002800D136
:1022F00005E2D048C4770D213970CF492CC92CC0D4
:102300006CC96CC0CD4AD4750B8803808978817004
:10231000CB482AE2B87859210024224601F074F80B
:10232000002800D1EEE1062038703C83C148C47714
:10233000C4492CC92CC06CC96CC0C04AD4750B8868
:10234000038089788170C0480FE2B8781B21182279
:1023500001F05AF8002800D1D7E10025FD833D7730
:102360007D83FD603D613D817D60FD700E20387094
:102370003D847D84BD8438461E300572FEF7A6FE7E
:102380007861B2480121018105607878022800D186
:1023900034E2AF4B33E2B8784221A92201F034F89D
:1023A000002800D1B4E1A3480021C1770B223A7084
:1023B000A84A38CA38C078CA78C0A04BD9751188E5
:1023C000018091788170A448CCE2974E0020307053
:1023D0006924752108AD012320462A4600F048FDF6
:1023E0002B78002800D1FCE0682B00D0F9E0BC700D
:1023F0006820307083208000388098485DE09348E2
:102400000021018101608B48C177954A38CA38C0E4
:1024100078CA78C0894BD97511880180917881700C
:1024200090489FE2B8787C210024224600F0ECFF1F
:10243000002800D16FE17F48C477052139708A49AF
:102440002CC92CC06CC96CC07C4AD4750B88038025
:1024500089788170854888E1B878212107AA01230D
:1024600000F006FD002800D158E107AC23787B7707
:1024700013A818217E4AFDF7D7FE2078012800D046
:10248000CFE1092038707B4852E2674E002030705F
:102490006824752108AD012320462A4600F0E8FC97
:1024A0002B78002800D1B2E0682B00D0AFE0BC70E0
:1024B00034708320800038806F48704939E2388B4F
:1024C000410B6F4D00D022E2410913AA5170C106A1
:1024D000090F117029461F3989B2884200D200E2E3
:1024E0004442FFE10AA900248C800A9409AA1470CE
:1024F0000CA8FFF79BFD002800D112E153490120F1
:1025000008810CAE305F796808187860F878411C53
:10251000F97078788022C9B200910192022800D126
:1025200082E14B4B81E1B8785921012200F06CFF28
:10253000002800D123E108203870FEF7C7FD3D498F
:102540000022CA771E3078614E4838C838C178C832
:1025500078C13A4BDA7502880A80807888704A48D8
:1025600000E2B87843210024224600F04DFF002805
:1025700000D107E1FC833C777C83FC603C613C81BB
:102580007C60FC700E2038703C847C84BC843846AF
:102590001E300472FEF79AFD78612C4801210181FA
:1025A00004607878022800D17EE1294B7DE1B8787B
:1025B0007D210E2200F028FF002800D1E5E01D4813
:1025C0000021C1770A223A70304A38CA38C078CA26
:1025D00078C01A4BD97511880180917881702C4888
:1025E000C0E1337013AC18212A4A2046FDF71CFEC7
:1025F00029482146A3E10C48037013AC1821254A51
:102600002046FDF711FE02203870244809E033709F
:1026100013AC18211F4A2046FDF706FE0320387030
:102620001F48214685E1C046B8052020B3D20000EE
:10263000FED1000098052020C8AF0000BC05202076
:1026400098A6000048B00000F8A600002C05202045
:1026500030D30000E8AF0000B0A60000A2D2000016
:1026600088B0000028A7000068B0000010A7000094
:1026700077D2000005D3000091D2000005D20000FF
:10268000FF1F000028B00000E0A6000008B0000016
:10269000C8A600006ED20000C2D200000CD200001A
:1026A0001DD20000387F401C3877C0B2032800D20A
:1026B00049E100243C81FC80BC80FC603C6101203D
:1026C0003860BC61FC613C62BC843846183084735D
:1026D000FEF7FCFCF2490C604C600C81E849CC77B9
:1026E000C8307861DD482CC82CC16CC86CC1EB4A7D
:1026F000D47503880B8080788870E2A035E0D848D4
:10270000D8491CE1D848D94919E1D548D84916E13A
:10271000D548D84913E1D448D74910E1D248D74920
:102720000DE13C81FC80BC80FC603C610120386094
:10273000BC61FC613C62BC84384618308473FEF78F
:10274000C5FCD7490C604C600C81EC49CC77C83093
:102750007861FE482CC82CC16CC86CC1E64AD4759F
:1027600003880B8080788870F9480AC80AC21AC8A2
:102770001AC201881180807890701BB0F0BDF748B4
:10278000F949DCE0F548F649D9E0F448F549D6E0E6
:10279000FC7719B20729214600DB014609B2642003
:1027A0004843A42107F078FC3969401AC217920FF8
:1027B00080188010401801B2C91302464A40511ACD
:1027C00009B2042900DB04463C6120B2C013214653
:1027D0004140081A00B2072803DC20210020785469
:1027E000E8E02022B95CFF29204600D1E2E0481C45
:1027F000B854022900D2DCE02046DBE0AB4B0128D4
:1028000000D1AC4B13AC2021D24A2046FDF70CFD81
:10281000BA48C5771F222146FDF734FFB648C57573
:1028200054E0CE4813A98AE0A04B012800D1A14B67
:1028300013AD2021C04A28460691FDF7F5FC335F11
:102840000DAE1821BDA23046FDF7EEFCAB48C477B3
:10285000A94BDC751F2229461D46FDF713FF1722E1
:1028600028463146FDF70EFF03203856002800D4D5
:1028700080E0069806463C54FC77FC603C610F20E3
:1028800038707868C117490E4018C0093881FEF7C2
:102890001DFC7861824804600820395E78780091D8
:1028A000022869D0824B68E0804B012800D1814B1F
:1028B00013AD2021A74A2846FDF7B6FC8F48C47700
:1028C0001F222946FDF7DEFE8B48C475A2490CC9BC
:1028D0000CC01CC91CC00A880280897881701BB09A
:1028E000F0BD2024B8785B21022300F0FDFD002814
:1028F00023D0388B9D490A18B878E4B25E2123466C
:1029000000F0F2FD002818D0388B0019388301211F
:102910004903009183B213A81821964AFDF784FC5D
:10292000388BA84203D907203870944800E09248B9
:1029300013A9FFF7F3FB1BB0F0BD88488C49FFF7E4
:102940000FFC1BB0F0BD6D480021C1776CA238CAE6
:1029500038C078CA78C0684BD975118801809178E1
:1029600081706FA006C806C316C816C301881980F7
:10297000807898701BB0F0BD4C4B604F01283146F9
:1029800000D14C4B13AE6F4A3046FDF74DFCFC773F
:102990001F2238463146FDF775FEEC756A4806C8B9
:1029A00006C50EC80EC5018829808078A8701BB0A6
:1029B000F0BD0020FF210231394A1181394EB44265
:1029C00000DC3446384DAC4200DB2C461480F968FC
:1029D0000818F860642107F05FFBB04200DC304665
:1029E000A84200DB28462E494880787800940228C7
:1029F00001D02F4B00E02D4B012800D12D4B13A807
:102A000020212DA2FDF710FC0AA948780B78069921
:102A100006290BD30AA98A78CC780D79497900AEBA
:102A200035C604910DA818212BA205E00090059849
:102A300001900DA8182123A2FDF7F6FB2E4C0021D2
:102A4000E1752E48C17713A91F22FDF71BFE0DA9C2
:102A500017222046FDF716FE1BB0F0BDA8AF000000
:102A600023D3000065D2000013D30000E8D100009A
:102A700053D200004AD2000041D20000D1D200005F
:102A80009805202072657472792070726F626500FB
:102A9000000000000000000000000000BC05202035
:102AA0002C0520200080FFFFFF7F0000E0D1000008
:102AB00030D300002ED200002573205A3D25366405
:102AC0000000000025303258202530325820726135
:102AD000773D256400000000253032582025303233
:102AE0005820253032582025303258202530325891
:102AF0002025303258000000BC05202098052020F9
:102B00004779726F20726561642072657472790012
:102B100000000000000000000000000000000000B5
:102B200073747265616D206D69737300000000003D
:102B300000000000000000004BD300007261773DF0
:102B40002564000080D2000068A6000088AF000065
:102B500080A60000ECD2000050A6000013D30000B5
:102B600037D200005CD20000F3D1000050B1000069
:102B7000FBD2000045D30000DCD2000035D30000BA
:102B800080B5002803D061491C22FDF710FD80BDEF
:102B9000F0B581B01F4D00242846214600F036FDD7
:102BA0001D4E3046214600F031FD1C4F384621466F
:102BB00000F02CFD5548046044608460C4600461EA
:102BC000446184612846214600F058FD3046214684
:102BD00000F054FD3846214600F050FD01B0F0BD34
:102BE000B0B54A4CE57E012129400A4800F046FD77
:102BF000A807C10F084800F041FD6807C10F07484A
:102C000000F03CFDE07E401C07210140E17600F031
:102C100007F8B0BDBCD10000C8D10000D4D100007D
:102C2000F0B589B00120C102384C22880025174632
:102C30008A42024600D82A46227463888B420246A2
:102C400000D82A466274A6888E42024600D82A46D8
:102C50000493A274E28802928A42024600D82A466D
:102C60000396E27422898A42034600D82B462375D4
:102C700063898B420646009700D82E466675A68962
:102C80008E42074600D82F46069607930892A775EE
:102C9000E28905928A4200D82846E075049B009993
:102CA000C818039E80192A46029D4019089FC01922
:102CB000079FC019069FC019059FC71901921FD011
:102CC00013484843134A5A431018134A72431018C2
:102CD000124A6A4310187D22920008994A4310183C
:102CE0000F4A07994A4310180E4A06994A4310188A
:102CF0000D4A05994A431018394607F0CDF90246A6
:102D00000199A176228309B0F0BDC046600A202057
:102D100054F2FFFF3CF6FFFF24FAFFFF0CFEFFFF1B
:102D2000DC050000C4090000AC0D0000F0B581B066
:102D30000120C04343490968C91E81427FD34248EC
:102D4000014610390968414E0E4078D00168314380
:102D500001603F4F30373F4C002504E00C347F1CAE
:102D60002D1D202D0FD060683042F7D0204600F096
:102D700079FC39788842F1D03870354840190169BA
:102D8000491C0161EAE7324E31463031C8788A7811
:102D900052000243D5B2304B1C783048AC420CD0C4
:102DA000A4001443E4B20546E540ED0705D11A70CE
:102DB0002B4A125733689A1832603022B25C5300A3
:102DC0004A781A43D5B2274B1C78AC420CD0A400E9
:102DD0001443E4B20546E540ED0705D11A70204AD8
:102DE000125773689A187260CB798A7952001A4325
:102DF000D5B21D4B1C78AC420CD0A4001443E4B2F5
:102E00000546E540ED0705D11A70154A1257B3681B
:102E10009A1AB2604A79097949001143CCB2134A2F
:102E20001378A3420BD09B000B43DBB2D840C00702
:102E300005D111700A48C056F168081AF06001B057
:102E4000F0BDC0463011404048300A40F0208C00B0
:102E5000F4042020CCB000008406202069960000F5
:102E600076AF0000850620208606202087062020D9
:102E7000F0B591B009930892002A00D1B1E10B900E
:102E80000A91F24FF248386001218E06F14B1E6024
:102E9000F14A106007910D021D6030242046FEF7B4
:102EA000E3FA00F0DBF90D90812010903860E948DA
:102EB0000746403F3E6010380E96066006462046A4
:102EC000FEF7D2FA0D9800280C9500D18CE1E2486B
:102ED000109C04600F973D600D9635603020FEF722
:102EE000C3FA0B984600F0B200F022FA00210B91D1
:102EF0000028274600D17FE10A9800F019FA00283F
:102F0000D34C00D176E1D1480460D2480E990160DB
:102F1000D1490C6005603020FEF7A6FA00F09EF95A
:102F2000002800D166E1C94807600E980F99086033
:102F30000D99086030242046FEF796FAC6480760CF
:102F40000F9805600D9805602046C14CFEF78CFA7D
:102F500007980643F0B200F0EBF90028BB4D0E993C
:102F6000BC4A00D14CE10998002800D16AE1002652
:102F70002C60116030201546FEF776FAB6480460E2
:102F80000C9F2F600A96701C0B9000F067F90028C8
:102F900000D1E9E030242046FEF766FAE3480068F5
:102FA0000690AD4E109830600F9807600D9807603E
:102FB0002046FEF759FAA64830602F6000F04EF91F
:102FC000002800D1D0E030242046FEF74DFAD74843
:102FD00000680590A04E109830600F9807600D981B
:102FE00007602046FEF740FA994830602F6000F0F5
:102FF00035F9002800D1B7E030242046FEF734FA36
:10300000CA4800680490FE4E109830600F98076020
:103010000D9807602046FEF727FAF74830602F60CA
:1030200000F01CF9002800D19EE030242046FEF775
:103030001BFAF44800680390F14E109830600F9826
:1030400007600D9807602046FEF70EFAEA483060E8
:103050002F6000F003F9002800D185E030242046DD
:10306000FEF702FAE74800680290E54E10983060DB
:103070000F9807600D9807602046FEF7F5F9DE48C7
:1030800030602F6000F0EAF800286DD03024204630
:10309000FEF7EAF9DB4800680190D94E10983060DD
:1030A0000F9807600D9807602046FEF7DDF9D248BB
:1030B00030602F6000F0D2F8002855D03024204630
:1030C000FEF7D2F9CF4800680090CD4E10983060DE
:1030D0000F9807600D9807602046FEF7C5F9C648AF
:1030E00030602F6000F0BAF800283DD03020FEF7A5
:1030F000BBF9C4480068109DFA490D600F9E376007
:103100000D990F6004994A0E02210A40069B5B0E3E
:103110000B40059C6401E40FE3189B00D218039B4D
:103120005B01DB0F9A189200029B5B0E0B409A1812
:10313000019B5B01DB0F9A189200009B5B0E0B401A
:1031400099184001C00F099A0B9B934221D2334634
:103150002C46E14A15600E9A1746326006910D9A88
:10316000DF4D0A9E06991BE0DE48109901600F981A
:103170000760284610380760FF242A460A9E0898F0
:10318000845509980B9EB042D34DD44C0E9955D01E
:10319000EEE6D14AD14D1560D14A15460E9F0A9EE2
:1031A0004418176030200A90FEF75EF9CD49CB48ED
:1031B00008600C9F2F6000F051F80A98FEF754F950
:1031C0001098C84908600F9807600D980760C248BA
:1031D000C24901600E9828600A98FEF745F92A4610
:1031E000CDE7002011B0F0BD00200B90BA4DBB4CD4
:1031F000BB4E0FE0FC4D01E0FB4DFC4C0E99FC4A30
:103200002F600F980160104610380160302016467C
:10321000FEF72AF9F74804600C98306000F01EF8B9
:10322000274630242046FEF71FF92F600E983060A5
:103230002046FEF719F90B9811B0F0BD07980B90D6
:10324000109FDDE707980B90DAE7C046EC8042401C
:1032500081000600E0120A404C80424070B5012413
:10326000684D2868C0055ED426023020FEF7FCF8C1
:103270002868304257D13020FEF7F6F828683042EF
:1032800051D13020FEF7F0F8286830424BD1302081
:10329000FEF7EAF82868304245D13020FEF7E4F81E
:1032A000286830423FD13020FEF7DEF828683042EF
:1032B00039D13020FEF7D8F82868304233D1302099
:1032C000FEF7D2F8286830422DD13020FEF7CCF836
:1032D0002868304227D13020FEF7C6F828683042EF
:1032E00021D13020FEF7C0F8286830421BD13020B1
:1032F000FEF7BAF82868304215D13020FEF7B4F84E
:10330000286830420FD13020FEF7AEF828683042EE
:1033100009D13020FEF7A8F82868304203D13020C8
:10332000FEF7A2F80024204670BDC04680130A4074
:10333000F0B585B003900120060201908206802539
:10334000B14F2E4C049602920398054205D0A64830
:1033500007603E462046403006E03E468120A24BB4
:10336000186022602046303002603020FEF77CF882
:103370003746A0480660049E2664FFF76FFF0028CA
:103380002ED03020FEF770F881239A480360266023
:1033900026636D08029AD7D103939348076022648D
:1033A0003020FEF761F89348076007462664FFF770
:1033B00055FF002818D030252846FEF755F811484B
:1033C0000068029003983860266026632846FEF75E
:1033D0004BF80298800E01998143084605B0F0BD74
:1033E00081208449086001E00398386026602663E4
:1033F000002005B0F0BDC04681000600A0120A40C2
:103400004C80424080130A40F0B587B00092019191
:103410000390754E7C49316001208406744D2C6008
:10342000744A116000020690286030273846FEF783
:103430001BF8FFF713FF04908120029030602E46A6
:10344000403E3460103D05942C603846FEF70CF881
:10345000049800281CD06748029F076006983060D7
:1034600028603020FEF700F803984006000EFFF7B2
:103470005FFF0021049100280ED00198FFF758FF4C
:103480000028594C09D00098FFF752FF049004E03F
:103490000026554D059F09E0534C2760059F376076
:1034A0002F603020FDF7E0FF2546049E5649514825
:1034B00001604F4906980860FFF7D0FE302420468F
:1034C000FDF7D2FF50482860494807602046FDF7C5
:1034D000CBFF304607B0F0BDEC80424081000600D3
:1034E000E0120A404C804240F0B589B015460246D1
:1034F0000020002D75D01C46002B72D00392029143
:10350000394E4148306001218F06394B1F60394ADE
:103510001060009108020890186030200590FDF7B7
:10352000A3FFFFF79BFE0490812007903060304896
:103530000646403E376010380697076007460598F4
:10354000FDF792FF0498002824D02A4807990160CB
:10355000049608983060019738603020FDF784FFAA
:1035600003984006000EFFF7E3FE0026002818D05F
:103570000298FFF7DDFE0028069F10D02878FFF79D
:10358000D7FE00280BD0641E6D1C002CF6D10098CD
:10359000059008E000200590134D069F0DE005966C
:1035A00001E00596069F104D079828600498076073
:1035B000019807603020FDF757FF0E49089E12481A
:1035C00008600B4806600646FFF748FE3024204698
:1035D000FDF74AFF0C48286037602046FDF744FF9E
:1035E000059809B0F0BDC046EC804240810006005D
:1035F000E0120A404C804240002804D0007A80004B
:103600001749014A425070478100060010B5002852
:103610000DD0027A9200124B8124D4501C4A00290A
:1036200000D11032016840688850014A885010BDAE
:10363000D0120000002805D0034A1143007A800010
:10364000074A81507047C04680000400002805D01A
:1036500080221143007A8000014A81507047C046A1
:1036600004804240002807D02721C9010CC85058C7
:103670001840411E8841704700207047002806D03E
:10368000034A002900D11032016840688850704711
:1036900090120000B0B5002808D0A3491CC91CC076
:1036A0003CC93CC01CC91CC03CC93CC0B0BDC046E4
:1036B00080B5002803D0A0490E22FCF778FF80BD1A
:1036C000F0B587B088488949416089490160102078
:1036D0000690FDF7C9FE874F87493846FDF75AFF28
:1036E000864903200590086085493846FDF7C2FEEB
:1036F000844D6968002638463246FDF743FF696805
:10370000012438462246FDF73DFF7C488460286846
:10371000204328607C4875494160754901600698DE
:10372000FDF7A2FE794D28467349FDF733FF78492E
:103730000598086028467249FDF79CFE754F796828
:1037400028463246FDF71EFF796828462246FDF7D7
:1037500019FF6F48846038680694204338606E4DC6
:10376000042728463946FFF771FF284618303946A6
:10377000FFF76CFF28463030059C2146FFF766FFB7
:10378000483528463946FFF761FF64483146FFF760
:103790003DFF63483146FFF739FF62483146FFF786
:1037A00035FF614D3035A0030490604F12E004995D
:1037B000604BC2580A43C25027460C372046FFF7D9
:1037C00051FF28705848801900240461361D6D1C73
:1037D000202E37D03C463846FFF70EFF7968069B0F
:1037E000D80381420FD88AB23F2A19DD402A21D05E
:1037F000802A4F480499DBD058038242DCD10598D7
:1038000081064B48D4E74A48001D9A0491420FD0E4
:10381000DA059142CBD0DA049142CDD1C021C7E77D
:10382000102A0BD0202AC7D1059881024048BFE753
:103830003021BDE7059801033D48B9E7059801022D
:103840003B48B5E7E44804604460E2488460446073
:1038500035490C604C608C60CC6030200E5C30319F
:103860004879059008790390C87902908879019089
:10387000CB788F784A7831490868314D05430D601F
:10388000049DF0350869284308612E48016A2E4DD1
:1038900029430162710011432C4A117079001943C8
:1038A0002B4A117001994900029A1143294A11705B
:1038B000016829430160069AC64B1A7303984000B9
:1038C00005990843244908701C60CB480470CB4D0F
:1038D0002A7022480221016021480160204600F040
:1038E0008FF92C7007B0F0BD00088640030000B1CE
:1038F0000100002600008640B8D10000001186407B
:10390000B0D10000041886400008094000000940BA
:10391000001109400418094050D100002CB10000EA
:1039200038B1000044B10000F4042020CCB0000005
:103930000815000000200A401C06202090330A4091
:1039400000FF000C28300A40F0208C008506202063
:1039500084062020860620208706202080E200E0C2
:1039600000E100E070477047F0B587B0002800D153
:103970002EE10027974A80C2052189010091964CCB
:103980003D4614E00398027D0198FDF7FBFD012000
:10399000E049087002980680059A16801837921C34
:1039A0000498801CA41C6D1C602F00D1F3E00592CC
:1039B000018800290695049013D008B288498842EE
:1039C00000DC87487D210391C900884200DB08465E
:1039D000FDF788F80146E8B2022809D27F20C00529
:1039E0000AE068007C49081821888C23002243E003
:1039F00001D17C4800E07C4806F02CFD06467B495E
:103A000006F039FC0028754818D1C7200106304659
:103A100006F049FC002802D07048401C0EE000214E
:103A2000304606F01DFC002801D1BF2000E03F20F9
:103A30000106304606F04AFCFDF70AF80021615EF7
:103A400003B2674A93421A4600DC654A039DED00C3
:103A5000AA4200DB2A46002B04D5002902DD2046BD
:103A6000009B09E08C250029009B00D42B4600B266
:103A7000002800DC2B46204602900DB210B2A8426E
:103A800007DD581806B210B2864200DB0646069DD6
:103A900007E01646069D04DACA1A16B2864200DC12
:103AA0000646B0B289B28142059A00D175E7504806
:103AB000C01903900369002B00D16EE735B2E813FB
:103AC00031464140081A80B2C1087C29019301D9CE
:103AD000002008E047495A587D21C900081A504380
:103AE00006F0B8FA019B43495958039BDA7D012D32
:103AF0000ADB5B7D072B17D801259D40864B1B7881
:103B0000002A0ED02B430DE05B7D350418D0072B27
:103B10002BD801259D40804B1B78002A22D0AB4337
:103B200021E0AB437C4D2B70039B9B7D072B069DB7
:103B30002CD801259D40784B1B78002A22D11FE00C
:103B4000072B05D801229A40734D2B7893432B7095
:103B5000039A927D072A069D18D8012595406E4A42
:103B600013780FE02B436C4D2B70039B9B7D072B31
:103B7000069D0BD801259D40674B1B78002A01D07C
:103B80002B4300E0AB43069D634A1370320400D11F
:103B9000F8E60146F6E65F4C2078012805D15E483C
:103BA000007800F02DF8002020700420094A105EF3
:103BB0000621515E0818C10F4018400850800820A7
:103BC000105E0A21515E0818C10F4018400810808D
:103BD00007B0F0BD1C062020D8052020FF7F000084
:103BE00018FCFFFFA4707D3FAE47813F00FEFF46FB
:103BF00050D10000081800008508202084082020EB
:103C0000F0B581B00746C1093948FFF737FD394E95
:103C1000012430462146FFF731FD00253046294674
:103C2000FFF72CFD7806C10F3148FFF727FD30461E
:103C30002146FFF723FD30462946FFF71FFDB80652
:103C4000C10F2B48FFF71AFD30462146FFF716FD3E
:103C500030462946FFF712FDF806C10F2448FFF74A
:103C60000DFD30462146FFF709FD30462946FFF796
:103C700005FD3807C10F1E48FFF700FD30462146FD
:103C8000FFF7FCFC30462946FFF7F8FC7807C10F28
:103C90001748FFF7F3FC30462146FFF7EFFC3046AC
:103CA0002946FFF7EBFCB807C10F1148FFF7E6FC08
:103CB00030462146FFF7E2FC30462946FFF7DEFC9E
:103CC00027400B483946FFF7D9FC30462146FFF71D
:103CD000D5FC30462946FFF7D1FC074E3046214639
:103CE000FFF7CCFC30462946FFF7C8FC01B0F0BD19
:103CF0002CB1000038B1000044B1000010B5054CF3
:103D00002078012805D104480078FFF779FF0020CA
:103D1000207010BD8408202085082020B0B54524DF
:103D2000D74D285D002801D004F084FE46200021F4
:103D3000295429552970B0BDB0B503460020002B89
:103D40000FD0CF4C2278002A0BD04625625D0A4363
:103D500007D0452218462146FCF729FC0020605573
:103D60000120B0BD4520C649085C704780B5C448F5
:103D70004C21FCF784FC80BDF0B597B0654D2878E8
:103D8000654F397801290CD10321002831D0012851
:103D900029D0022833D10022804B9C5E322680A39A
:103DA0005FE001260A21092852D8820001A39A580F
:103DB0009746C046DD3D0000333E00001B3E00003C
:103DC000233E0000073E00003B3E0000473E00004F
:103DD0002B3E0000573E0000113E000000216B4AC0
:103DE000545E6BA33BE000226F4B9C5E0A266FA3E0
:103DF00037E000226F4B9C5E0A266FA331E001265C
:103E000065A300242DE00022544B9C5E54A328E0BF
:103E10000022434B9C5E43A323E056490C6856A303
:103E20001DE051490C6851A319E0434A147843A39B
:103E300017E053490C6853A311E00022444B9C5EE9
:103E4000052644A30DE000213E4A545E3EA306E051
:103E500032A3002405E00021344A545E34A30A2131
:103E60000E46401C0090019112A8112154A2FCF7AB
:103E7000DBF93878002813D12878092810D1E01709
:103E8000214641400D1A0A262846314606F0E2F83E
:103E90004643A91B00900191002C07D42B2306E078
:103EA00000960DA811214EA2234603E02D230DA854
:103EB000112146A2FCF7B8F93878012810D154A096
:103EC00008A91CC81CC103AA5423938102880A8034
:103ED00080788870524803905248049052480FE00E
:103EE00044A008A91CC81CC103AA0023137302889C
:103EF0000A80807888704348039043480490434880
:103F0000059012A80DA908AA03AB00F0DFF817B0BE
:103F1000F0BDC046820820208308202051310000D7
:103F20001E00202051312042494153001A00202018
:103F30005131205459415700220020205131204254
:103F4000544B0000200020205131204253540000E7
:103F50001C0020205131204C4541440016002020F7
:103F6000513120414E4700001000202051312044A3
:103F7000330000000C0020205131204432000000AA
:103F8000080020205131204431000000140020207E
:103F90005131205350440000415243000000202082
:103FA00041524320414E470002002020415243200D
:103FB0005241440004002020415243205350440009
:103FC00025732025752F25750000000056414C3AB9
:103FD0002563256C642E256C642053543A2E3100E1
:103FE00056414C3A25356C642053543A252D326C99
:103FF000640000004B312B204B322D204B334E45BB
:10400000585400004C495645204B343A4241434BEA
:10401000523A2B4C20202D3A5220333630300000BB
:104020004B312B204B322D204B334E58B0B545250C
:10403000134C6055411E0E290BD204F01FFD0028C1
:1040400015D0FDF737FBFDF741F8A06400F092FBB7
:10405000B0BD00210F280A4604D01128F1D0102845
:1040600005D101220748017007480270E9E70020E6
:10407000605506A009A10CA20FA300F027F8B0BD5F
:104080003805202082082020830820205461736B8B
:104090002051756575652046756C6C0054727920E9
:1040A000416761696E0000004B332F4B342052652D
:1040B0007475726E0000000045444320436F6E74B7
:1040C000726F6C2050726F6A65637400F0B597B0C0
:1040D000019316460F46044605AD681C4321029025
:1040E000FCF7CBFA284622300390443500950F2088
:1040F000C043002201210491034606E0012220254D
:1041000005A9C9180D7608336BD0002C06D0002AFB
:1041100004D1E218157C002D049A01D1002220253B
:1041200005A9C9184D74002C06D0002A04D0E11846
:104130004D7C002D049A01D10022202505A9C91823
:104140008D74002C06D0002A04D0E1188D7C002D3F
:10415000049A01D10022202505A9C918CD74002C8C
:1041600006D0002A04D0E118CD7C002D049A01D19C
:104170000022202505A9C9180D75002C06D0002A9B
:1041800004D0E1180D7D002D049A01D100222025D4
:1041900005A9C9184D75002C06D0002A04D0E118D5
:1041A0004D7D002D049A01D10022202505A9C918B2
:1041B0008D75002C06D0002A04D0E1188D7D002DCD
:1041C000049A01D10022202505A9C918CD75002C1B
:1041D00094D0002A92D0E118CD7D002D8ED00022FF
:1041E0008EE705A900244C74034607E00124202231
:1041F00005A9C91829254A55083372D0002F06D0C1
:10420000002C04D1F9180C7C002C049A01D1002256
:10421000202405A9C91822254C55002F06D0002AB4
:1042200004D0F9184C7C002C049A01D100222024DF
:1042300005A9C91823254C55002F06D0002A04D003
:10424000F9188C7C002C049A01D10022202405A9A5
:10425000C91824254C55002F06D0002A04D0F9187F
:10426000CC7C002C049A01D10022202405A9C91875
:1042700025254C55002F06D0002A04D0F9180C7DB6
:10428000002C049A01D10022202405A9C918262552
:104290004C55002F06D0002A04D0F9184C7D002C74
:1042A000049A01D10022202405A9C91827254C55BC
:1042B000002F06D0002A04D0F9188C7D002C049A17
:1042C00001D10022202405A9C91828254C55002F0A
:1042D0008CD0002A8AD0F918CA7D002A86D0002402
:1042E00086E7002403990C700346029F07E001242F
:1042F000202205A9C9183A254A55083372D0002E44
:1043000006D0002C04D1F1180C7C002C049A01D1A9
:104310000022202405A9C91833254C55002E06D0AB
:10432000002A04D0F1184C7C002C049A01D1002200
:10433000202405A9C91834254C55002E06D0002A82
:1043400004D0F1188C7C002C049A01D10022202486
:1043500005A9C91835254C55002E06D0002A04D0D1
:10436000F118CC7C002C049A01D10022202405A94C
:10437000C91836254C55002E06D0002A04D0F11855
:104380000C7D002C049A01D10022202405A9C91813
:1043900037254C55002E06D0002A04D0F1184C7D4C
:1043A000002C049A01D10022202405A9C91838251F
:1043B0004C55002E06D0002A04D0F1188C7D002C1C
:1043C000049A01D10022202405A9C91839254C5589
:1043D000002E8CD0002A8AD0F118CA7D002A86D0FF
:1043E000002486E7002303994B74019E07E0012314
:1043F000202205A909184B254A55083072D0002EF5
:1044000006D0002B04D131180B7C002B049A01D16B
:104410000022202305A9091844240B55002E06D09C
:10442000002A04D031184B7C002B049A01D10022C1
:10443000202305A9091845240B55002E06D0002A73
:1044400004D031188B7C002B049A01D10022202348
:1044500005A9091846240B55002E06D0002A04D0C1
:104460003118CB7C002B049A01D10022202305A90E
:10447000091847254B55002E06D0002A04D03118C4
:104480000B7D002B049A01D10022202305A90918D5
:1044900048254B55002E06D0002A04D031184B7DFC
:1044A000002B049A01D10022202305A909184925CF
:1044B0004B55002E06D0002A04D031188B7D002BDE
:1044C000049A01D10022202305A909184A254B5539
:1044D000002E8CD0002A8AD03118CA7D002A86D0BE
:1044E000002386E7002000990870BA4D287801283B
:1044F00006D1681C44223946FCF72CF8002807D066
:1045000001262E70681C44223946FCF750F82E55BF
:1045100017B0F0BD10B5002800D1C4E04521AD4A68
:10452000515C11390122D243914200D2BBE087494C
:104530000978854A1278012A16D1022943D0012927
:1045400027D0002900D0ACE0002270498A5E0A23FF
:10455000434398187D229200904200DB1046502879
:1045600000DD9DE050209BE0092900D999E0C0467C
:104570007944097949008F440473585C3E81866907
:10458000974B00225B498A5E0A23434398184B22CB
:1045900036E000225B498B5E0A2214464443E3184E
:1045A0007D242401A34200DB2346574CA34200DCB8
:1045B00023460B801B0474D100281ADA3120C24331
:1045C00028320A806DE000224B498B5E322214466D
:1045D0004443E318494CA34200DB2346484CA34222
:1045E00000DC23460B801B045BD1002801DA31205C
:1045F000C2430A8055E0002238498A5E1018E12241
:10460000D200904200DB1046642849DC642047E079
:1046100000222D498A5E1018322800DB3220312218
:10462000D24390423CDC10463AE00A2141432E48F6
:1046300002E00A2141432A4802685118294A91425E
:1046400000DB1146322917DC322115E020490A78B7
:104650001018282800DB2820C2179043087020E09B
:104660000A214143214802685118214A914200DB46
:104670001146642900DC6421016012E00022164921
:104680008A5E052303E0002212498A5E0A2343431F
:1046900098184B22D200904200DB1046C21790437C
:1046A000088000F067F810BD002208498A5E0A23DE
:1046B000434398184B221201904200DB1046142805
:1046C000EEDC1420ECE7C0461E0020201A0020205B
:1046D00022002020200020201C0020201600202066
:1046E00010002020B80B00000C0020200800202023
:1046F000881300001400202000002020204E00001D
:10470000E0B1FFFF0200202030F8FFFF040020206E
:1047100080B545202F49085C11380121C9438842E2
:1047200010D309480078002801D10A2100E00321B4
:1047300006480278521CD3B2994200D80022027077
:1047400000F018F880BDC046830820208208202091
:1047500010B5204C207800280AD0A06CC821FCF7A6
:10476000D7FC002804D0FCF7B1FCA06400F002F8EC
:1047700010BDC046F0B5CFB03BA804F00BFA26A898
:1047800001F032FF04AC2046FCF74AFF45201149F6
:10479000085C401E102801D901F009F84834400097
:1047A00078448088400087442B014B01B300E4002B
:1047B00041006B01AD020D01F5028E00CC021D001F
:1047C0006A000302100010001700FFF7D5FA4FB07F
:1047D000F0BDC04638052020BAA0BCA1BFA2C3A32B
:1047E00000F0E3FF3BAFB87804F0C2F9034647ACF2
:1047F0001125C24A20462946FBF716FD062004A9CA
:104800000B5E0420085E009042AEBD4A3046294649
:10481000FBF70AFD787804F083F903463DAFB94A07
:1048200038462946FBF700FDB7A0AEE2199BBA480F
:10483000471C009747AD1126B84A28463146FBF77A
:10484000F3FC0020205EB6494143C80F89140818C4
:10485000199900907B1A42ACB24A20463146FBF7C8
:10486000E3FC3BA8807804F083F903463DAFA34AFC
:1048700038463146FBF7D8FCAB48294675E03BAFDC
:10488000B87804F075F9034647AC11259B4A2046D9
:104890002946FBF7C9FC062004A90B5E0420085E2C
:1048A000009042AE964A30462946FBF7BDFC787828
:1048B00004F036F903463DAF924A38462946FBF7E5
:1048C000B3FC9AA061E2182004AF3B5E1A20385E68
:1048D000009047AC1125994A20462946FBF7A4FCD5
:1048E0001C203B5E1E20385E009042AE944A30464B
:1048F0002946FBF799FC0C203B5E0E20385E0090A9
:104900003DAF904A38462946FBF78EFC8EA03CE22C
:10491000062004A90B5E0420085E009047A80390BF
:1049200011268D4A3146FBF77FFC0227E05F7C4968
:104930004843C20F801480180025625F00904A43EC
:10494000D00F91140B1842AC844A20463146FBF735
:104950006BFC26A8435FC05F00903DAF804A38469D
:104960003146FBF761FC7F48039922463B4600F045
:104970001CFF062004A90B5E0420085E009047ACD3
:104980001125754A20462946FBF74EFC3BA8407985
:10499000199B009042AE744A30462946FBF744FC0E
:1049A0007248008801B2002900D548420021704AAF
:1049B000535E00903DAF6F4A38462946FBF734FC02
:1049C0006D48E2E1062004A9085E199B009047ACFF
:1049D00011266A4A20463146FBF726FC3BA883791C
:1049E0004079009042AD664A28463146FBF71CFCF0
:1049F00064483D9064483E9064483F9064A09EE1C6
:104A00003BAFB87804F0B4F8034647AC11253B4AF5
:104A100020462946FBF708FCFCF7B6FB034642AEEE
:104A20005E4A30462946FBF7FFFBFB787879009019
:104A30003DAF5B4A38462946FBF7F6FB5948A4E1EF
:104A40003BAFB87804F094F8034647AC11252B4AE5
:104A500020462946FBF7E8FBFCF796FB034642AEEF
:104A60004E4A30462946FBF7DFFBFB787879009009
:104A70003DAF4B4A38462946FBF7D6FB4A4884E10E
:104A8000062004A9085E199B009047AC11253B4AFB
:104A900020462946FBF7C8FB3BAFBB7978790090ED
:104AA00042AE374A30462946FBF7BEFBB87804F0E1
:104AB0005FF803463DAF114A38462946FBF7B4FB81
:104AC0003A4862E141626F75740000004D53504DE9
:104AD00030204C6179657265640000004E6F6E2075
:104AE000426C6F636B696E670000000045444320B1
:104AF0003230323620526561647900009DD4000066
:104B000087D40000A7D400005475726E204C6566EF
:104B10007420393000000000E703000063D4000077
:104B2000676600006FD4000093D400005475726E65
:104B300020526967687439300000000033D40000E7
:104B40003FD4000057D400004D3120513530204370
:104B50006F756E74000000007BD400001DD400004F
:104B600013D400001DD50000E7D300000000202072
:104B70000200202027D40000BAD400004BD400004B
:104B8000F5D3000034352F34352F34352F32320031
:104B9000513220522D4C2D5200000000B1D40000A3
:104BA000D9D30000C5D40000D2D4000005D4000041
:104BB00047ACA01C0E2120220191FBF739FD0020FB
:104BC000207442A908743DA908743A2002906070CC
:104BD00041202070FD4842904390449045903D9084
:104BE0003E903F904090209CE017214641400E1A95
:104BF0000A253046294605F02DFA29464143711A07
:104C0000302739434CAA11700A2E039700D2E5E0F1
:104C10000A21FBF76DFD39434CA84170642E00D288
:104C2000DFE06421304605F015FA0A21FBF760FD4C
:104C300039434CA88170E648864200D8D4E07D20F4
:104C4000C100304605F006FA0A21FBF751FD394351
:104C50004CA8C170DF48864200D8C8E0DE49304623
:104C600005F0F8F90A21FBF743FD39434CA801711F
:104C7000DA48864200D8BDE0D949304605F0EAF965
:104C80000A21FBF735FD39434CA84171D5488642CE
:104C900000D8B2E0D449304605F0DCF90A21FBF730
:104CA00027FD39434CA88171D048864200D8A7E03F
:104CB000CF49304605F0CEF90A273946FBF718FDF3
:104CC000039A11434CA8C171CA48864200D89AE0A1
:104CD000C949304605F0BEF93946FBF709FD03988E
:104CE00001434CA80172C548864200D88EE0C449F1
:104CF000304605F0AFF9039908434CA948720A20E1
:104D00000B2784E0062004A9085E199B009047AC9D
:104D10001126BC4A20463146FBF786FA3BA8837928
:104D20004079009042ADB84A28463146FBF77CFAFC
:104D3000B6483D90B6483E90B6483F90B6A03DABD1
:104D400048E0182004AF3B5E1A20385E009047AC64
:104D50001125B44A20462946FBF766FA1C203B5E23
:104D60001E20385E009042AEAF4A30462946FBF71F
:104D70005BFA0C203B5E0E20385E00903DAFAB4AE4
:104D800038462946FBF750FAA9A0214632463B4651
:104D900000F00BFD062004A9085E199B009047ACAB
:104DA0001126984A20463146FBF73EFA3BA8837904
:104DB0004079009042AD944A28463146FBF734FAD8
:104DC0009EA03DAB1946C4C8C4C102880A80807841
:104DD00088709EA021462A4600F0E7FC01200227A9
:104DE00015E00220032712E0032004270FE004202F
:104DF00005270CE00520062709E00620072706E026
:104E00000720082703E00820092700E00920002CDC
:104E100003D54CA92D220A5438460428044600D351
:104E200004240328039F0BD80420001BC1B247A809
:104E3000801C2022FBF7FCFB0620001BC0B200E018
:104E40000220611ECAB24CAB9A5C47AB1A540E28C2
:104E50001ED800291CD047A90A18A11ECBB24CAEFF
:104E6000F35C53700D2813D8002911D047A90A18F4
:104E7000E11ECBB24CAEF35C93700C2808D800292D
:104E800006D047A90818211FC9B24CAA515CC170AD
:104E900047A871490181219CE017214641400E1A23
:104EA0003046294605F0D6F829464143711A394360
:104EB0004CAA11700A2E71D30A21FBF719FC394351
:104EC0004CA84170642E6CD36421304605F0C2F8C2
:104ED0000A21FBF70DFC39434CA881703C488642FF
:104EE00062D97D20C100304605F0B4F80A21FBF7F5
:104EF000FFFB39434CA8C1703648864257D9364922
:104F0000304605F0A7F80A21FBF7F2FB39434CA81D
:104F10000171324886424DD93149304605F09AF840
:104F20000A21FBF7E5FB39434CA841712D48864225
:104F300043D92D49304605F08DF80A21FBF7D8FBFF
:104F400039434CA881712948864239D928493046CD
:104F500005F080F80A273946FBF7CAFB039A11438C
:104F60004CA8C171234886422DD92349304605F00B
:104F700071F83946FBF7BCFB039801434CA801725A
:104F80001E4886426AD91E49304605F063F80399E7
:104F900008434CA948720A200B2760E00120022731
:104FA0005DE0022003275AE00320042757E0042095
:104FB000052754E00520062751E0062007274EE08C
:104FC000072008274BE00820092748E02020202060
:104FD000E70300000F270000102700009F86010054
:104FE000A08601003F420F0040420F007F969800CC
:104FF00080969800FFE0F50500E1F505FFC99A3BB2
:1050000000CA9A3B4BD40000F5D3000034352F344E
:10501000352F34352F3232005132204C2D522D4C49
:105020000000000033D400003FD4000057D400003B
:105030004D3220513530204F70656E0031322041A5
:105040003237302035204134323000005133204196
:105050007263205231303000423A00000920002CA7
:1050600003D54CA92D220A5438460428044600D3FF
:1050700004240328039F0AD80420001BC1B247A8B8
:105080000A302022FBF7D4FA0198001BC5B2601E3B
:10509000C1B24CAA515C47AA51550E2D1ED800280A
:1050A0001CD047A84119A01EC2B24CAB9A5C4A70F2
:1050B0000D2D13D8002811D047A84119E01EC2B207
:1050C0004CAB9A5C8A700C2D08D8002806D047A8F3
:1050D0004019211FC9B24CAA515CC17042A8BF49F6
:1050E0000180229CE017214641400E1A0A253046D5
:1050F000294604F0AFFF29464143711A39434CAAAF
:1051000011700A2E71D30A21FBF7F2FA39434CA829
:105110004170642E6CD36421304604F09BFF0A2159
:10512000FBF7E6FA39434CA88170AD48864262D954
:105130007D20C100304604F08DFF0A21FBF7D8FA2C
:1051400039434CA8C170A748864257D9A649304672
:1051500004F080FF0A21FBF7CBFA39434CA8017118
:10516000A24886424DD9A249304604F073FF0A2175
:10517000FBF7BEFA39434CA841719E48864243D999
:105180009D49304604F066FF0A21FBF7B1FA394326
:105190004CA881719948864239D99949304604F022
:1051A00059FF0A273946FBF7A3FA039A11434CA883
:1051B000C171944886422DD99349304604F04AFF84
:1051C0003946FBF795FA039801434CA801728F48C2
:1051D000864222D98E49304604F03CFF03990843A9
:1051E0004CA948720A200B2718E00120022715E07D
:1051F0000220032712E0032004270FE004200527E4
:105200000CE00520062709E00620072706E0072016
:10521000082703E00820092700E00920002C03D517
:105220004CA92D220A5438460428044600D30424ED
:105230000328039F0BD80420001BC1B242A8801C86
:105240002022FBF7F5F90620001BC0B200E0022087
:10525000611ECAB24CAB9A5C42AB1A540E281ED8DF
:1052600000291CD042A90A18A11ECBB24CAEF35C97
:1052700053700D2813D8002911D042A90A18E11E35
:10528000CBB24CAEF35C93700C2808D8002906D042
:1052900042A90818211FC9B24CAA515CC17042A88A
:1052A0005C490181239CE017214641400E1A30469B
:1052B000294604F0CFFE29464143711A39434CAACE
:1052C00011700A2E71D30A21FBF712FA39434CA848
:1052D0004170642E6CD36421304604F0BBFE0A2179
:1052E000FBF706FA39434CA881703D48864262D9E3
:1052F0007D20C100304604F0ADFE0A21FBF7F8F92D
:1053000039434CA8C1703748864257D93649304690
:1053100004F0A0FE0A21FBF7EBF939434CA8017118
:10532000324886424DD93249304604F093FE0A2174
:10533000FBF7DEF939434CA841712E48864243D928
:105340002D49304604F086FE0A21FBF7D1F9394396
:105350004CA881712948864239D92949304604F040
:1053600079FE0A273946FBF7C3F9039A11434CA883
:10537000C171244886422DD92349304604F06AFE83
:105380003946FBF7B5F9039801434CA801721F4851
:10539000864241D91E49304604F05CFE0399084319
:1053A0004CA948720A200B2737E00120022734E07D
:1053B0000220032731E0032004272EE004200527E4
:1053C0002BE00520062728E00620072725E00720F8
:1053D000082722E0082009271FE0C046433A0000C2
:1053E000E70300000F270000102700009F86010040
:1053F000A08601003F420F0040420F007F969800B8
:1054000080969800FFE0F50500E1F505FFC99A3B9D
:1054100000CA9A3B443A00000920002C03D54CA94D
:105420002D220A5438460428044600D304240328B5
:105430000AD80420001BC1B242A80A302022FBF780
:10544000F7F80198001BC5B2601EC1B24CAA515CAE
:1054500042AA51550E2D1ED800281CD042A8411931
:10546000A01EC2B24CAB9A5C4A700D2D13D8002816
:1054700011D042A84119E01EC2B24CAB9A5C8A70AE
:105480000C2D08D8002806D042A84019211FC9B207
:105490004CAA515CC1703DA8D3490180199FF817EF
:1054A000394641400D1A0A262846314604F0D2FDFD
:1054B00031464143691A039C21434CAA11700A2DBD
:1054C00001966FD30A21FBF713F921434CA84170D1
:1054D000642D6AD36421284604F0BCFD0A21FBF741
:1054E00007F921434CA88170B248854260D97D20DC
:1054F000C100284604F0AEFD0A21FBF7F9F821436C
:105500004CA8C170AC48854255D9AC49284604F036
:10551000A1FD0A21FBF7ECF821434CA80171A84832
:1055200085424BD9A749284604F094FD0A21FBF790
:10553000DFF821434CA84171A348854241D9A349D2
:10554000284604F087FD0A21FBF7D2F821434CA836
:1055500081719F48854237D99E49284604F07AFDDB
:105560000A263146FBF7C4F821434CA8C1719A487A
:1055700085422CD99949284604F06CFD3146FBF749
:10558000B7F821434CA801729548854222D9954924
:10559000284604F05FFD039908434CA948720A208D
:1055A0000B2618E00120022615E00220032612E057
:1055B000032004260FE0042005260CE00520062623
:1055C00009E00620072606E00720082603E0082059
:1055D000092600E00920002F03D54CA92D220A54EA
:1055E000304605280546039C00D30525042810D81D
:1055F0000420471BFEB20D2E00D30D26711C3DA8C2
:10560000801C2022FBF714F80C2F039C34D8F01CCC
:1056100000E00220691ECAB24CAB9A5C3DAB1A5442
:105620000E2829D8002927D03DA90A18A91ECBB2D7
:105630004CAEF35C53700D281ED800291CD03DA938
:105640000A18E91ECBB24CAEF35C93700C2813D849
:10565000002911D03DA90A18291FCBB24CAEF35C2A
:10566000D3700B2808D8002906D03DA90818691F57
:10567000C9B24CAA515C01713DA8029981724821BE
:105680004172082004A9085E01B2C91302464A40CB
:10569000521A91B2554B4B43DB0C019E35465D438C
:1056A000521B22434CAD2A700A2930D3504A15466A
:1056B0005D432D0C75435B1B23434CAD6B7064291C
:1056C00028D38B084B4D5D436B0C15465D432D0C69
:1056D00075435B1B23434CADAB70CB087D2B1CD3B8
:1056E000454D5D432B0D5A43120C56439A1B2243E2
:1056F0004CABDA70314A914212D309093F4A4A430E
:10570000D10C30314CAA1171052106220AE0012189
:10571000022207E00221032204E00321042201E027
:1057200004210522002803D54CA82D2343541146FB
:1057300004290C4600D3042403290AD80420001BA2
:10574000C1B23DA80B302022FAF772FF0F20604053
:1057500000E00B20611ECAB24CAB9A5C3DAB1A5400
:105760000E281ED800291CD03DA90A18A11ECBB2B4
:105770004CADEB5C53700D2813D8002911D03DA916
:105780000A18E11ECBB24CADEB5C93700C2808D824
:10579000002906D03DA90818211FC9B24CAA515CA6
:1057A000C17017A047A942AA3DABFEF78FFC4FB0CE
:1057B000F0BDC046E70300000F27000010270000DF
:1057C0009F860100A08601003F420F0040420F006B
:1057D0007F96980080969800FFE0F50500E1F505BA
:1057E000FFC99A3B00CA9A3B533A0000CDCC000057
:1057F0009A1900007B140000C52000004703000038
:105800004F444F4D00000000F0B56C4D00206C4A35
:105810006C4E6D4929606860AE60EA60286168611D
:105820006A4F6B4B6B491160111D89C11561506145
:1058300069496A4B6A4C3C607860B860FB603A61C9
:1058400079616849684A694C1C6058609A60D960FF
:105850001F615861664C674F0F60486088600C316B
:1058600019C16549654F664C22C630607760B060EB
:10587000F460644C6449654B30C7083F3A460832CF
:10588000083E43C27B61624B624E634C30C10839B3
:105890000A460832C1C24B61604B614F61A430C6F9
:1058A00030607760B160F360614B624962A430C7D9
:1058B000083F3A460832083E43C27B61614B624E64
:1058C00062A430C108390A460832C1C24B61634B39
:1058D000634F64A430C630607760B160F360644B9E
:1058E000644965A430C7083F3A460832083E43C2BF
:1058F0007B61644B644C65A60E604D600A460832BD
:1059000091C24B61654F664B28C42060083C22461B
:105910000C3283C2634B644964A42D4D2C60284A29
:105920006A60A860E96028616B612E46634B644D34
:1059300064A40C604A600C46083461C44B61654B3A
:10594000654C66A62E606A60A860EC6029616B6198
:105950006549664B66A6266062602646083629C6FB
:1059600061614F4906C31860083B19460C3191C16B
:10597000624A634963A31C4C2360184D6560A060B4
:10598000E160206162612646614B624A62A430C1D7
:1059900008390C46083445C44B61634B63A430C2DC
:1059A000106053609160D0603D4922C31860083B8D
:1059B00019460C31083A85C1F0BDC046A00A202026
:1059C000B80A2020180B2020F3D40000D00A202091
:1059D000080C20200DD50000E99F0000E80A2020D7
:1059E000DDD40000000B2020800C202001D5000019
:1059F000599F00002BD50000C3D40000480B202085
:105A0000CB9F0000D0D40000600B2020D59F000069
:105A1000F39F0000780B20201BD50000639F00003F
:105A2000900B202020204172632054657374000085
:105A3000859F0000A80B20202020476F20313030A8
:105A4000306D6D00C19F0000C00B20202020526FE0
:105A5000757465203235304C52000000A39F000061
:105A6000D80B202020205132204C2D522D4C0000EC
:105A7000AD9F0000F00B20202020513220522D4CF1
:105A80002D520000B79F0000300B20202020513302
:105A9000204172632052313030000000799F0000B5
:105AA000ECD400008F9F0000200C202020204D31DE
:105AB00020537065656420434C000000999F0000EE
:105AC000380C202020204D32205370696E204F4C1E
:105AD00000000000FD9F0000500C20202020547585
